:100000000C945D000C9485000C9485000C94850084
:100010000C9485000C9485000C9485000C9485004C
:100020000C9485000C9485000C9485000C9485003C
:100030000C9485000C9485000C9485000C9485002C
:100040000C947E060C9485000C94F4020C94CE0261
:100050000C9485000C9485000C9485000C9485000C
:100060000C9426030C948500000000002400270057
:100070002A0000000000250028002B0004040404CE
:100080000404040402020202020203030303030342
:10009000010204081020408001020408102001021F
:1000A00004081020000000080002010000030407FB
:1000B0000000000000000000350911241FBECFEF32
:1000C000D8E0DEBFCDBF11E0A0E0B1E0E6E8F7E1A7
:1000D00002C005900D92A432B107D9F722E0A4E244
:1000E000B1E001C01D92A33DB207E1F710E0CDE5FC
:1000F000D0E004C02197FE010E94B60BCC35D10799
:10010000C9F70E94C8060C94C10B0C9400008091A2
:100110006D0190E020916E01821B91090895CF92AC
:10012000DF92EF92FF920F931F93CF93DF936C01B7
:100130007A018B01C0E0D0E0CE15DF0581F0D80157
:100140006D918D01D601ED91FC910190F081E02D32
:10015000C6010995892B11F02196EECF7E01C701CA
:10016000DF91CF911F910F91FF90EF90DF90CF9093
:100170000895FC01538D448D252F30E0842F90E0AD
:10018000821B930B541710F0CF9608950197089592
:10019000FC01918D828D981761F0828DDF01A80F8F
:1001A000B11D5D968C91928D9F5F9F73928F90E0B1
:1001B00008958FEF9FEF0895FC01918D828D981720
:1001C00031F0828DE80FF11D858D90E008958FEF5D
:1001D0009FEF0895FC01918D228D892F90E0805C26
:1001E0009F4F821B91098F73992708958AED91E0A3
:1001F0000E94EA0021E0892B09F420E0822F089573
:10020000FC01848DDF01A80FB11DA35ABF4F2C91B3
:10021000848D90E001968F739927848FA689B78982
:100220002C93A089B1898C91837080648C93938D79
:10023000848D981306C00288F389E02D80818F7D1C
:1002400080830895EF92FF920F931F93CF93DF93D4
:10025000EC0181E0888F9B8D8C8D981305C0E88917
:10026000F989808185FD26C0F62E0B8D10E00F5F89
:100270001F4F0F731127E02E8C8DE8120CC00FB6A4
:1002800007FCFACFE889F989808185FFF5CFCE0197
:100290000E940001F1CF8B8DFE01E80FF11DE35AA2
:1002A000FF4FF0829FB7F8940B8FEA89FB8980811A
:1002B00080620AC09FB7F894EE89FF896083E8895D
:1002C000F98980818370806480839FBF81E090E0A2
:1002D000DF91CF911F910F91FF90EF900895CF93F1
:1002E000DF93EC01888D8823C9F0EA89FB8980813E
:1002F00085FD05C0A889B9898C9186FD0FC00FB610
:1003000007FCF5CF808185FFF2CFA889B9898C9150
:1003100085FFEDCFCE010E940001E7CFDF91CF91A5
:10032000089580E090E0892B29F00E94F600811169
:100330000C940000089585ED8093BC008091BC0072
:1003400084FDFCCF1092B501089540914401262F01
:1003500030E0240F311D21323105DCF42091B5014C
:100360002430C9F4FC0180E090E0861758F4309105
:1003700044012191DC01AC5DBE4FA30FB11D2C9354
:100380000196F3CF80914401680F6093440180E0AF
:10039000089581E0089582E00895089508950895EC
:1003A000E0916E0180916D01E81730F4F0E0E159C1
:1003B000FE4F808190E008958FEF9FEF0895909118
:1003C0006E0180916D01981750F4E92FF0E0E1592A
:1003D000FE4F208130E09F5F90936E0102C02FEFAF
:1003E0003FEFC9010895CF92DF92EF92FF920F93F2
:1003F0001F93CF93DF937C01CB018A012091B6013B
:10040000222389F0EB016B01C40ED51ECC15DD054E
:1004100069F06991D701ED91FC910190F081E02D97
:10042000C7010995F3CF642F0E94A501C801DF9190
:10043000CF911F910F91FF90EF90DF90CF90089593
:10044000CF93DF931F92CDB7DEB769832091B601BA
:100450002223D1F02091D901203240F021E030E078
:10046000FC013383228380E090E015C08091B701C6
:10047000E82FF0E0E854FE4F998190838F5F8093DE
:10048000B7018093D90105C061E0CE0101960E94B9
:10049000A50181E090E00F90DF91CF91089508953C
:1004A00080E090E00895CF93C42FFC01808191E01B
:1004B0009093B6018093D8011092B7011092D901A0
:1004C00087E792E00E9420026C2F87E792E00E946B
:1004D0002002CF910C9490040E94BC0B0F931F93A9
:1004E000CF93DF93042FD52F122FC32FFC018081D0
:1004F00091E09093B6018093D8011092B7011092C9
:10050000D901F4E06F9FB00111246A5F7F4F87E744
:1005100092E00E942002802F9D2F0E94EC048D2FDC
:1005200090E00E94EC04812F9C2F0E94EC048C2F01
:1005300090E00E94EC04DF91CF911F910F910C94F9
:10054000900420E030E040E050E0CB960C946E0246
:10055000CF93DF93EC018B819C8120E030E040E081
:1005600050E06A81CB960E946E028B819C8120E0D4
:1005700030E040E050E16981CB96DF91CF910C945F
:100580006E02FC0180E1689F9001112483819481B7
:1005900040E050E06081CB960C946E021F920F9267
:1005A0000FB60F9211242F933F934F935F936F9346
:1005B0007F938F939F93AF93BF93EF93FF938AEDB6
:1005C00091E00E940001FF91EF91BF91AF919F9147
:1005D0008F917F916F915F914F913F912F910F90EC
:1005E0000FBE0F901F9018951F920F920FB60F928B
:1005F00011242F938F939F93EF93FF93E091EA0140
:10060000F091EB018081E091F001F091F10182FD28
:1006100012C090818091F3018F5F8F732091F4015C
:10062000821751F0E091F301F0E0E652FE4F958F12
:100630008093F30101C08081FF91EF919F918F9191
:100640002F910F900FBE0F901F9018951F920F9231
:100650000FB60F9211242F933F934F935F936F9395
:100660007F938F939F93AF93BF93EF93FF9380916B
:10067000B900887F803609F49CC068F5883209F497
:100680005BC090F4803109F454C038F4882309F435
:10069000F6C0883009F44DC0F6C0883109F44CC06A
:1006A000803209F45DC0EFC0803409F468C048F4BA
:1006B000803309F455C0883309F0E5C08093B30155
:1006C000D8C0803509F44FC0883509F45DC088343E
:1006D00009F0D9C0D6C0883909F4C7C0A8F4883752
:1006E00009F467C038F4883609F463C0803709F428
:1006F00060C0C9C0883809F4B8C0803909F45FC047
:10070000803809F0C0C05BC0803B09F486C038F473
:10071000803A09F466C0883A09F47FC0B4C0803CCE
:1007200009F4A7C0883C09F4A4C0883B09F48AC036
:10073000AAC08091900110C09091B2018091B10146
:10074000981770F5E091B20181E08E0F8093B201AD
:10075000F0E0EF56FE4F80818093BB0085EC86C0B1
:100760008093B3018EC0E091B20181E08E0F80933F
:10077000B2018091BB00F0E0EF56FE4F8083909174
:10078000B2018091B1016EC0E091B20181E08E0FA3
:100790008093B2018091BB00F0E0EF56FE4F808362
:1007A0008091B40181116DC081E080938F0184EA52
:1007B00061C083E08093B50110926601CFCF809134
:1007C0006601803208F051C0E091660181E08E0F31
:1007D000809366018091BB00F0E0EA5BFE4F80836E
:1007E000BDCF85EC8093BC001092B501809166016D
:1007F000803230F4E0916601F0E0EA5BFE4F108257
:100800006091660170E0E0916901F0916A0186E40F
:1008100091E009951092660136C084E08093B5019D
:100820001092450110924401E0916B01F0916C012E
:10083000099580914401811105C081E080934401B4
:1008400010922401E091450181E08E0F80934501D3
:10085000F0E0EC5DFE4F80818093BB0090914501FC
:1008600080914401981708F479CF85E88093BC0003
:100870000AC085EC8093BC001092B50104C01092B0
:10088000B3010E949B01FF91EF91BF91AF919F91A6
:100890008F917F916F915F914F913F912F910F9029
:1008A0000FBE0F901F9018958E3008F08E508770F5
:1008B000806480937C0080917A00806480937A00C9
:1008C00080917A0086FDFCCF80917800209179009C
:1008D00090E0922B08953FB7F8948091CB029091CD
:1008E000CC02A091CD02B091CE0226B5A89B05C046
:1008F0002F3F19F00196A11DB11D3FBFBA2FA92F9F
:10090000982F8827820F911DA11DB11DBC01CD011B
:1009100042E0660F771F881F991F4A95D1F7089507
:100920003091D901313208F04BC08091B50181116D
:10093000FCCF9091D80122E02093B50121E02093D3
:10094000B4012FEF2093B3011092B2013093B101A3
:10095000E8EBF1E0A1E9B1E020E0321721F04191AC
:100960004D932F5FFACF1092900120919001990F33
:10097000922B9093900190918F01913061F410929D
:100980008F01909190019093BB009091BC0093FDDA
:10099000F8CF95EC01C095EE9093BC009091B50115
:1009A0009230E1F39091B3019F3F79F08091B301D0
:1009B000803241F08091B301803331F084E005C092
:1009C00081E003C082E001C083E01092B701109281
:1009D000D9011092B6010895682F87E792E00C9430
:1009E00020029091B5019111FCCF613208F060E2D4
:1009F00091E09093B5019093B4012FEF2093B30150
:100A00001092B201260F2093B10190939001909122
:100A10009001880F892B8093900180918F01813004
:100A200061F410928F01809190018093BB008091BE
:100A3000BC0083FDF8CF85EC01C085EE8093BC003F
:100A40008091B5018130E1F38091B201861710F4F5
:100A50006091B201E1E9F1E0AFE6B1E080E0861734
:100A600021F091919D938F5FFACF10926E01809348
:100A70006D0108959091830221E02093B601909337
:100A8000D8011092B7011092D901682F87E792E040
:100A90000E9420020E94900483EA92E00197F1F7FD
:100AA00061E0809183020E94F10490916D01809138
:100AB0006E019817F1F387E792E00E94DF01089535
:100AC0002FB7F8948091CF029091D002A091D102DB
:100AD000B091D2022FBF8093860290938702A09399
:100AE0008802B0938902809184028130A9F018F0C5
:100AF000833019F142C0809185020E945404BC01E8
:100B00006B5071098CE198E00E948E0B6F31B0F54B
:100B10006330C8F563E037C0809185020E945404B9
:100B2000BC016451710980EC92E10E948E0B613529
:100B300038F5693040F569E026C0809185020E9451
:100B40005404BC01990F880B990B0E94020B29E2F7
:100B50003CE547E851E40E94F2099B01AC0160E0EA
:100B600078ED83E196E40E945F0A0E94D10A67391A
:100B700048F4633140F463E106C008956FE103C0B7
:100B800061E501C067E9862F089590E0FC01EC550E
:100B9000FF4F2491FC01E057FF4F3491FC01E458D2
:100BA000FF4FE491EE2309F43CC0222339F12330B6
:100BB00091F038F42130A9F0223001F584B58F7D11
:100BC00012C0273091F02830A1F02430B9F4809180
:100BD00080008F7D03C0809180008F77809380009C
:100BE0000DC084B58F7784BD09C08091B0008F7728
:100BF00003C08091B0008F7D8093B000F0E0EE0FD5
:100C0000FF1FEE58FF4FA591B4919FB7F894611163
:100C100004C08C913095382302C0EC913E2B3C935C
:100C20009FBF089510926E0110926D011092B7014E
:100C30001092D9011092B50181E08093B401109215
:100C40008F0161E082E10E94C50561E083E10E94BD
:100C5000C505E9EBF0E080818E7F808380818D7F08
:100C6000808388E48093B80085E48093BC008DEC99
:100C700091E090936C0180936B018EEC91E09093E6
:100C80006A018093690108958F929F92AF92BF92FB
:100C9000CF92DF92EF92FF926B017C010E946B0476
:100CA0004B015C01C114D104E104F104F1F00E9494
:100CB0006B04DC01CB0188199909AA09BB09883E9C
:100CC0009340A105B10570F321E0C21AD108E108F3
:100CD000F10888EE880E83E0981EA11CB11CC11497
:100CE000D104E104F10419F7DDCFFF90EF90DF901C
:100CF000CF90BF90AF909F908F9008951F920F92CA
:100D00000FB60F9211242F933F938F939F93AF931E
:100D1000BF938091CF029091D002A091D102B09167
:100D2000D2023091CA0223E0230F2D3720F401961E
:100D3000A11DB11D05C026E8230F0296A11DB11DFE
:100D40002093CA028093CF029093D002A093D10245
:100D5000B093D2028091CB029091CC02A091CD02AF
:100D6000B091CE020196A11DB11D8093CB0290934C
:100D7000CC02A093CD02B093CE02BF91AF919F91D0
:100D80008F913F912F910F900FBE0F901F9018954C
:100D9000789484B5826084BD84B5816084BD85B556
:100DA000826085BD85B5816085BD80916E00816062
:100DB00080936E0010928100809181008260809308
:100DC000810080918100816080938100809180000A
:100DD0008160809380008091B10084608093B10035
:100DE0008091B00081608093B00080917A0084602F
:100DF00080937A0080917A00826080937A0080915B
:100E00007A00816080937A0080917A008068809374
:100E10007A001092C100E091EA01F091EB0182E0CA
:100E20008083E091E601F091E7011082E091E80112
:100E3000F091E9018FEC80831092F201E091EE01D4
:100E4000F091EF0186E08083E091EC01F091ED01FB
:100E5000808180618083E091EC01F091ED018081DF
:100E600088608083E091EC01F091ED0180818068E1
:100E70008083E091EC01F091ED0180818F7D808392
:100E80000E9412060E94120640E060E089EC92E0A7
:100E90000E94530280E496E09093900280938F0228
:100EA0008091C90291E09093B6018093D80110928D
:100EB000B7011092D90160E087E792E00E9420021A
:100EC0000E94900461E08091C9020E94F10487E7CA
:100ED00092E00E94DF01182F482F4F76406160E0BA
:100EE00089EC92E00E94530243E06EEF89EC92E0BD
:100EF0000E945302412F60E089EC92E00E9453026D
:100F000065E070E080E090E00E944406412F416A75
:100F100060E089EC92E00E94530210E020E030E0B3
:100F200040E050E0612F89EC92E00E946E021F5F6A
:100F30001031A1F783E1809383020E94120681E8B9
:100F40000E943A05807F8032B1F444E163E883E88F
:100F500092E00E9453028FE80E943A05482F477E94
:100F60006FE883E892E00E94530248E069E883E872
:100F700092E00E94530200918C0210918D02F801C0
:100F80006181838194810E94A102F8016281838141
:100F900094810E94A10200918A0210918B02F801B3
:100FA0006181838194810E94A102F8016281838121
:100FB00094810E94A102EAE9F0E02491E6E8F0E0E1
:100FC0008491882399F090E0880F991FFC01E859DB
:100FD000FF4FA591B491FC01EE58FF4F859194917C
:100FE0008FB7F894EC91E22BEC938FBF68EB7BE02A
:100FF00080E090E00E944406FF24F3940E94600584
:1010000090E090936801809367018EE80E943A0512
:10101000482F4F776EE883E892E00E94530248E041
:1010200060E883E892E00E94530280E80E943A055B
:1010300085FF87C080918302F092B6018093D8012A
:101040001092B7011092D90167E887E792E00E94F9
:1010500020020E94900462E0809183020E94F104C9
:1010600090916D0180916E019817F1F387E792E0FE
:101070000E94DF01182F90916D0180916E019817E9
:10108000F1F387E792E00E94DF0120916701309140
:1010900068012C3031050CF072C061E08AE00E94DA
:1010A000C50500918C0210918D02F8016181838148
:1010B00094810E94A102F8016281838194810E943F
:1010C000A10200918A0210918B02F8016181838153
:1010D00094810E94A102F8016281838194810E941F
:1010E000A10264EF71E080E090E00E9444068091EC
:1010F0008C0290918D020E94A80266E980918C0278
:1011000090918D020E94C10200918A0210918B027F
:10111000F8016181838194810E94A102F801838199
:10112000948120E030E040E050E16281CB960E9463
:101130006E0266E980918A0290918B020E94C10240
:1011400007C061E070E080E090E00E9444066DCF4F
:101150008091670190916801429774F40E94600544
:1011600090E0909368018093670164EF71E080E004
:1011700090E00E944406ECCF60E08AE02AC0223171
:10118000310554F561E08BE00E94C50580918C0229
:1011900090918D020E94A8026FEF80918C02909135
:1011A0008D020E94C10280918A0290918B020E945E
:1011B000A80262E380918A0290918B020E94C10290
:1011C0000E94600590E0909368018093670161E060
:1011D0008BE00E94C50546C0D12FF0E0CF2F9C01C7
:1011E0002C2B3D2BA9014D5F584080918C02909192
:1011F0008D02473E534020F40E94A80264E61FC0BF
:101200002133E1E13E078CF00E94A80268EC809156
:101210008C0290918D020E94C10280918A0290916D
:101220008B020E94A80264E617C02C3F384024F4C9
:101230000E94A80266E903C00E94A80268EC80919F
:101240008C0290918D020E94C10280918A0290913D
:101250008B020E94A80268EC80918A0290918B0216
:101260000E94C1020E949101C9CE1092DD0110922C
:10127000DC0188EE93E0A0E0B0E08093DE01909383
:10128000DF01A093E001B093E10124E031E030936D
:10129000DB012093DA0125EC30E03093E701209365
:1012A000E60124EC30E03093E9012093E80120ECE2
:1012B00030E03093EB012093EA0121EC30E03093F1
:1012C000ED012093EC0122EC30E03093EF0120930C
:1012D000EE0126EC30E03093F1012093F001109202
:1012E000F3011092F4011092F5011092F6011092A0
:1012F0007A021092790280937B0290937C02A093F1
:101300007D02B0937E0286E191E090937802809313
:101310007702EEE8F2E086EA92E017821682108603
:1013200015821482138236968E179F07B1F710929A
:10133000B5021092B8021092B4021092B302109249
:10134000C5021092C8021092C4021092C30280E635
:1013500080938E028093C9028091A802811112C0ED
:1013600083E08093A8028EE892E09093A702809396
:10137000A60287E08093A30285E08093A40286E022
:101380008093A50283EA92E090938D0280938C0271
:101390008091A202811111C082E08093A2022EE806
:1013A00032E03093A1022093A00280939D0284E05A
:1013B00080939E0283E080939F028DE992E0909358
:1013C0008B0280938A0281E0809384028EE0809376
:1013D0008502109286021092870210928802109263
:1013E000890208955058BB27AA270E940A0A0C9424
:1013F000540B0E94460B38F00E944D0B20F039F43C
:101400009F3F19F426F40C94430B0EF4E095E7FB90
:101410000C943D0BE92F0E94650B58F3BA17620735
:1014200073078407950720F079F4A6F50C94870BD1
:101430000EF4E0950B2EBA2FA02D0B01B9019001EF
:101440000C01CA01A0011124FF27591B99F0593F33
:1014500050F4503E68F11A16F040A22F232F342F7B
:101460004427585FF3CF469537952795A795F040C9
:101470005395C9F77EF41F16BA0B620B730B840BDE
:10148000BAF09150A1F0FF0FBB1F661F771F881F96
:10149000C2F70EC0BA0F621F731F841F48F48795EE
:1014A00077956795B795F7959E3F08F0B0CF9395E0
:1014B000880F08F09927EE0F9795879508950E9459
:1014C000730A0C94540B0E944D0B58F00E94460B6B
:1014D00040F029F45F3F29F00C943D0B51110C941E
:1014E000880B0C94430B0E94650B68F39923B1F3AE
:1014F000552391F3951B550BBB27AA27621773073A
:10150000840738F09F5F5F4F220F331F441FAA1FCD
:10151000A9F335D00E2E3AF0E0E832D09150504089
:10152000E695001CCAF72BD0FE2F29D0660F771F37
:10153000881FBB1F261737074807AB07B0E809F01D
:10154000BB0B802DBF01FF2793585F4F3AF09E3FA2
:10155000510578F00C943D0B0C94880B5F3FE4F33D
:10156000983ED4F3869577956795B795F7959F5FE5
:10157000C9F7880F911D9695879597F90895E1E031
:10158000660F771F881FBB1F621773078407BA0790
:1015900020F0621B730B840BBA0BEE1F88F7E095EB
:1015A00008950E946D0B88F09F5798F0B92F9927E6
:1015B000B751B0F0E1F0660F771F881F991F1AF03E
:1015C000BA95C9F714C0B13091F00E94870BB1E011
:1015D00008950C94870B672F782F8827B85F39F010
:1015E000B93FCCF3869577956795B395D9F73EF4D7
:1015F00090958095709561957F4F8F4F9F4F08957F
:10160000E89409C097FB3EF490958095709561959C
:101610007F4F8F4F9F4F9923A9F0F92F96E9BB2752
:101620009395F695879577956795B795F111F8CFCE
:10163000FAF4BB0F11F460FF1BC06F5F7F4F8F4F39
:101640009F4F16C0882311F096E911C0772321F02F
:101650009EE8872F762F05C0662371F096E8862FC7
:1016600070E060E02AF09A95660F771F881FDAF71E
:10167000880F9695879597F9089597F99F6780E861
:1016800070E060E008959FEF80EC089500240A94D4
:101690001616170618060906089500240A9412164D
:1016A0001306140605060895092E0394000C11F480
:1016B000882352F0BB0F40F4BF2B11F460FF04C02D
:1016C0006F5F7F4F8F4F9F4F089557FD9058440F86
:1016D000551F59F05F3F71F04795880F97FB991F91
:1016E00061F09F3F79F0879508951216130614064E
:1016F000551FF2CF4695F1DF08C0161617061806DB
:10170000991FF1CF86957105610508940895E894B5
:10171000BB2766277727CB0197F9089597FB072EFC
:1017200016F4009407D077FD09D00E94A20B07FCA5
:1017300005D03EF4909581959F4F089570956195E1
:101740007F4F0895AA1BBB1B51E107C0AA1FBB1FF7
:10175000A617B70710F0A61BB70B881F991F5A953D
:10176000A9F780959095BC01CD010895EE0FFF1F5C
:101770000590F491E02D099481E090E0F8940C94A8
:06178000C10BF894FFCF3D
:101786000000000022018F00B9006F01EA00C800C6
:10179600DC00000000002002F3015002CF018700A8
:0417A600DF01D0018E
:107E0000112484B714BE81FFF0D085E080938100F7
:107E100082E08093C00088E18093C10086E0809377
:107E2000C20080E18093C4008EE0C9D0259A86E02C
:107E300020E33CEF91E0309385002093840096BBD3
:107E4000B09BFECF1D9AA8958150A9F7CC24DD24C4
:107E500088248394B5E0AB2EA1E19A2EF3E0BF2EE7
:107E6000A2D0813461F49FD0082FAFD0023811F036
:107E7000013811F484E001C083E08DD089C08234E0
:107E800011F484E103C0853419F485E0A6D080C0E4
:107E9000853579F488D0E82EFF2485D0082F10E0AE
:107EA000102F00270E291F29000F111F8ED06801E7
:107EB0006FC0863521F484E090D080E0DECF843638
:107EC00009F040C070D06FD0082F6DD080E0C81688
:107ED00080E7D80618F4F601B7BEE895C0E0D1E017
:107EE00062D089930C17E1F7F0E0CF16F0E7DF06D8
:107EF00018F0F601B7BEE89568D007B600FCFDCFD4
:107F0000A601A0E0B1E02C9130E011968C91119780
:107F100090E0982F8827822B932B1296FA010C0160
:107F200087BEE89511244E5F5F4FF1E0A038BF0790
:107F300051F7F601A7BEE89507B600FCFDCF97BE46
:107F4000E89526C08437B1F42ED02DD0F82E2BD052
:107F50003CD0F601EF2C8F010F5F1F4F84911BD097
:107F6000EA94F801C1F70894C11CD11CFA94CF0C13
:107F7000D11C0EC0853739F428D08EE10CD085E9AC
:107F80000AD08FE07ACF813511F488E018D01DD067
:107F900080E101D065CF982F8091C00085FFFCCF94
:107FA0009093C60008958091C00087FFFCCF809118
:107FB000C00084FD01C0A8958091C6000895E0E648
:107FC000F0E098E1908380830895EDDF803219F02E
:107FD00088E0F5DFFFCF84E1DECF1F93182FE3DFCA
:107FE0001150E9F7F2DF1F91089580E0E8DFEE27F6
:047FF000FF270994CA
:027FFE00040479
:0400000300007E007B
:00000001FF
